{
  "contractName": "VerificateurPositif",
  "abi": [
    {
      "inputs": [],
      "name": "lastChecked",
      "outputs": [
        {
          "internalType": "int256",
          "name": "",
          "type": "int256"
        }
      ],
      "stateMutability": "view",
      "type": "function",
      "constant": true
    },
    {
      "inputs": [
        {
          "internalType": "int256",
          "name": "nombre",
          "type": "int256"
        }
      ],
      "name": "estPositif",
      "outputs": [
        {
          "internalType": "bool",
          "name": "",
          "type": "bool"
        }
      ],
      "stateMutability": "pure",
      "type": "function",
      "constant": true
    },
    {
      "inputs": [
        {
          "internalType": "int256",
          "name": "nombre",
          "type": "int256"
        }
      ],
      "name": "checkAndStore",
      "outputs": [],
      "stateMutability": "nonpayable",
      "type": "function"
    }
  ],
  "bytecode": "0x608060405234801561001057600080fd5b506101cb806100206000396000f3fe608060405234801561001057600080fd5b50600436106100415760003560e01c8063e5ada13e14610046578063fa046abd14610064578063fe05af8b14610094575b600080fd5b61004e6100b0565b60405161005b91906100e6565b60405180910390f35b61007e60048036038101906100799190610132565b6100b6565b60405161008b919061017a565b60405180910390f35b6100ae60048036038101906100a99190610132565b6100c3565b005b60005481565b6000808212159050919050565b8060008190555050565b6000819050919050565b6100e0816100cd565b82525050565b60006020820190506100fb60008301846100d7565b92915050565b600080fd5b61010f816100cd565b811461011a57600080fd5b50565b60008135905061012c81610106565b92915050565b60006020828403121561014857610147610101565b5b60006101568482850161011d565b91505092915050565b60008115159050919050565b6101748161015f565b82525050565b600060208201905061018f600083018461016b565b9291505056fea2646970667358221220a68bd4955f7113d65dcdef79c3f52cffba5f109ee6b51eff4fd3ac9dabcbdf7b64736f6c63430008130033",
  "immutableReferences": {},
  "source": "// SPDX-License-Identifier: MIT\r\npragma solidity ^0.8.0;\r\n\r\ncontract VerificateurPositif {\r\n    int public lastChecked;\r\n\r\n    function estPositif(int nombre) public pure returns (bool) {\r\n        return nombre >= 0;\r\n    }\r\n\r\n    function checkAndStore(int nombre) public {\r\n        lastChecked = nombre;\r\n    }\r\n}",
  "sourcePath": "C:\\Users\\ilias\\OneDrive\\Bureau\\contract_test\\contracts\\VerificateurPositif.sol",
  "compiler": {
    "name": "solc",
    "version": "0.8.19+commit.7dd6d404.Emscripten.clang"
  },
  "schemaVersion": "3.4.16",
  "updatedAt": "2025-07-28T22:37:37.055Z",
  "networkType": "ethereum",
  "devdoc": {
    "kind": "dev",
    "methods": {},
    "version": 1
  },
  "userdoc": {
    "kind": "user",
    "methods": {},
    "version": 1
  }
}