{
  "contractName": "AdditionContract",
  "abi": [
    {
      "anonymous": false,
      "inputs": [
        {
          "indexed": false,
          "internalType": "uint256",
          "name": "x",
          "type": "uint256"
        },
        {
          "indexed": false,
          "internalType": "uint256",
          "name": "y",
          "type": "uint256"
        },
        {
          "indexed": false,
          "internalType": "uint256",
          "name": "result",
          "type": "uint256"
        }
      ],
      "name": "AdditionDone",
      "type": "event"
    },
    {
      "inputs": [
        {
          "internalType": "uint256",
          "name": "x",
          "type": "uint256"
        },
        {
          "internalType": "uint256",
          "name": "y",
          "type": "uint256"
        }
      ],
      "name": "addition2",
      "outputs": [
        {
          "internalType": "uint256",
          "name": "",
          "type": "uint256"
        }
      ],
      "stateMutability": "nonpayable",
      "type": "function"
    }
  ],
  "bytecode": "0x608060405234801561001057600080fd5b5061022b806100206000396000f3fe608060405234801561001057600080fd5b506004361061002b5760003560e01c8063f1d1643814610030575b600080fd5b61004a600480360381019061004591906100f1565b610060565b6040516100579190610140565b60405180910390f35b600080828461006f919061018a565b90507f48d06cb18c61cbfe621bd778a344bc4401a2deda9f64d5730fd1e5eb82c5acf88484836040516100a4939291906101be565b60405180910390a18091505092915050565b600080fd5b6000819050919050565b6100ce816100bb565b81146100d957600080fd5b50565b6000813590506100eb816100c5565b92915050565b60008060408385031215610108576101076100b6565b5b6000610116858286016100dc565b9250506020610127858286016100dc565b9150509250929050565b61013a816100bb565b82525050565b60006020820190506101556000830184610131565b92915050565b7f4e487b7100000000000000000000000000000000000000000000000000000000600052601160045260246000fd5b6000610195826100bb565b91506101a0836100bb565b92508282019050808211156101b8576101b761015b565b5b92915050565b60006060820190506101d36000830186610131565b6101e06020830185610131565b6101ed6040830184610131565b94935050505056fea2646970667358221220e4a11dcef5331ea889f3e6312d5297b46d7bdc304874748e2623ccf2691db5d564736f6c63430008130033",
  "immutableReferences": {},
  "source": "// SPDX-License-Identifier: MIT\r\npragma solidity ^0.8.0;\r\n\r\ncontract AdditionContract {\r\n    event AdditionDone(uint x, uint y, uint result);\r\n\r\n    function addition2(uint x, uint y) public returns (uint) {\r\n        uint res = x + y;\r\n        emit AdditionDone(x, y, res);\r\n        return res;\r\n    }\r\n}\r\n",
  "sourcePath": "C:\\Users\\ilias\\OneDrive\\Bureau\\contract_test\\contracts\\AdditionContract.sol",
  "compiler": {
    "name": "solc",
    "version": "0.8.19+commit.7dd6d404.Emscripten.clang"
  },
  "schemaVersion": "3.4.16",
  "updatedAt": "2025-07-29T15:31:43.647Z",
  "networkType": "ethereum",
  "devdoc": {
    "kind": "dev",
    "methods": {},
    "version": 1
  },
  "userdoc": {
    "kind": "user",
    "methods": {},
    "version": 1
  }
}