{
  "contractName": "AdditionContract",
  "abi": [
    {
      "inputs": [],
      "name": "a",
      "outputs": [
        {
          "internalType": "uint256",
          "name": "",
          "type": "uint256"
        }
      ],
      "stateMutability": "view",
      "type": "function",
      "constant": true
    },
    {
      "inputs": [],
      "name": "b",
      "outputs": [
        {
          "internalType": "uint256",
          "name": "",
          "type": "uint256"
        }
      ],
      "stateMutability": "view",
      "type": "function",
      "constant": true
    },
    {
      "inputs": [],
      "name": "addition1",
      "outputs": [
        {
          "internalType": "uint256",
          "name": "",
          "type": "uint256"
        }
      ],
      "stateMutability": "view",
      "type": "function",
      "constant": true
    },
    {
      "inputs": [
        {
          "internalType": "uint256",
          "name": "x",
          "type": "uint256"
        },
        {
          "internalType": "uint256",
          "name": "y",
          "type": "uint256"
        }
      ],
      "name": "addition2",
      "outputs": [
        {
          "internalType": "uint256",
          "name": "",
          "type": "uint256"
        }
      ],
      "stateMutability": "pure",
      "type": "function",
      "constant": true
    }
  ],
  "bytecode": "0x60806040526005600055600360015534801561001a57600080fd5b506102528061002a6000396000f3fe608060405234801561001057600080fd5b506004361061004c5760003560e01c80630dbe671f146100515780634d3e46e41461006f5780634df7e3d01461008d578063f1d16438146100ab575b600080fd5b6100596100db565b604051610066919061012d565b60405180910390f35b6100776100e1565b604051610084919061012d565b60405180910390f35b6100956100f8565b6040516100a2919061012d565b60405180910390f35b6100c560048036038101906100c09190610179565b6100fe565b6040516100d2919061012d565b60405180910390f35b60005481565b60006001546000546100f391906101e8565b905090565b60015481565b6000818361010c91906101e8565b905092915050565b6000819050919050565b61012781610114565b82525050565b6000602082019050610142600083018461011e565b92915050565b600080fd5b61015681610114565b811461016157600080fd5b50565b6000813590506101738161014d565b92915050565b600080604083850312156101905761018f610148565b5b600061019e85828601610164565b92505060206101af85828601610164565b9150509250929050565b7f4e487b7100000000000000000000000000000000000000000000000000000000600052601160045260246000fd5b60006101f382610114565b91506101fe83610114565b9250828201905080821115610216576102156101b9565b5b9291505056fea2646970667358221220fe6c8b192fcb181c43a5789d4156a1c1265d58b803ba9c823f9db0964a1ee09464736f6c63430008130033",
  "immutableReferences": {},
  "source": "// SPDX-License-Identifier: MIT\r\npragma solidity ^0.8.0;\r\n\r\ncontract AdditionContract {\r\n    uint public a = 5;\r\n    uint public b = 3;\r\n\r\n    function addition1() public view returns (uint) {\r\n        return a + b;\r\n    }\r\n\r\n    function addition2(uint x, uint y) public pure returns (uint) {\r\n        return x + y;\r\n    }\r\n}",
  "sourcePath": "C:\\Users\\xd-11\\Documents\\GitHub\\PFE_DAPP\\contracts\\AdditionContract.sol",
  "compiler": {
    "name": "solc",
    "version": "0.8.19+commit.7dd6d404.Emscripten.clang"
  },
  "schemaVersion": "3.4.16",
  "updatedAt": "2025-07-29T00:01:33.775Z",
  "networkType": "ethereum",
  "devdoc": {
    "kind": "dev",
    "methods": {},
    "version": 1
  },
  "userdoc": {
    "kind": "user",
    "methods": {},
    "version": 1
  }
}