{
  "contractName": "MyContract",
  "abi": [
    {
      "inputs": [
        {
          "internalType": "uint256",
          "name": "_a",
          "type": "uint256"
        },
        {
          "internalType": "uint256",
          "name": "_b",
          "type": "uint256"
        }
      ],
      "stateMutability": "nonpayable",
      "type": "constructor"
    },
    {
      "inputs": [],
      "name": "a",
      "outputs": [
        {
          "internalType": "uint256",
          "name": "",
          "type": "uint256"
        }
      ],
      "stateMutability": "view",
      "type": "function"
    },
    {
      "inputs": [],
      "name": "b",
      "outputs": [
        {
          "internalType": "uint256",
          "name": "",
          "type": "uint256"
        }
      ],
      "stateMutability": "view",
      "type": "function"
    },
    {
      "inputs": [],
      "name": "addition1",
      "outputs": [
        {
          "internalType": "uint256",
          "name": "",
          "type": "uint256"
        }
      ],
      "stateMutability": "view",
      "type": "function"
    },
    {
      "inputs": [
        {
          "internalType": "uint256",
          "name": "x",
          "type": "uint256"
        },
        {
          "internalType": "uint256",
          "name": "y",
          "type": "uint256"
        }
      ],
      "name": "addition2",
      "outputs": [
        {
          "internalType": "uint256",
          "name": "",
          "type": "uint256"
        }
      ],
      "stateMutability": "pure",
      "type": "function"
    }
  ],
  "bytecode": "0x608060405234801561000f575f80fd5b506040516103073803806103078339818101604052810190610031919061007c565b815f819055508060018190555050506100ba565b5f80fd5b5f819050919050565b61005b81610049565b8114610065575f80fd5b50565b5f8151905061007681610052565b92915050565b5f806040838503121561009257610091610045565b5b5f61009f85828601610068565b92505060206100b085828601610068565b9150509250929050565b610240806100c75f395ff3fe608060405234801561000f575f80fd5b506004361061004a575f3560e01c80630dbe671f1461004e5780634d3e46e41461006c5780634df7e3d01461008a578063f1d16438146100a8575b5f80fd5b6100566100d8565b6040516100639190610125565b60405180910390f35b6100746100dd565b6040516100819190610125565b60405180910390f35b6100926100f2565b60405161009f9190610125565b60405180910390f35b6100c260048036038101906100bd919061016c565b6100f8565b6040516100cf9190610125565b60405180910390f35b5f5481565b5f6001545f546100ed91906101d7565b905090565b60015481565b5f818361010591906101d7565b905092915050565b5f819050919050565b61011f8161010d565b82525050565b5f6020820190506101385f830184610116565b92915050565b5f80fd5b61014b8161010d565b8114610155575f80fd5b50565b5f8135905061016681610142565b92915050565b5f80604083850312156101825761018161013e565b5b5f61018f85828601610158565b92505060206101a085828601610158565b9150509250929050565b7f4e487b71000000000000000000000000000000000000000000000000000000005f52601160045260245ffd5b5f6101e18261010d565b91506101ec8361010d565b9250828201905080821115610204576102036101aa565b5b9291505056fea264697066735822122032ed98f9aef10005062414391847d684070f8811fe50e9cbc4502c309deb21c164736f6c63430008150033",
  "immutableReferences": {},
  "source": "// SPDX-License-Identifier: MIT\r\npragma solidity ^0.8.0;\r\n\r\ncontract MyContract {\r\n    uint public a;\r\n    uint public b;\r\n\r\n    constructor(uint _a, uint _b) {\r\n        a = _a;\r\n        b = _b;\r\n    }\r\n\r\n    function addition1() public view returns (uint) {\r\n        return a + b;\r\n    }\r\n\r\n    function addition2(uint x, uint y) public pure returns (uint) {\r\n        return x + y;\r\n    }\r\n}\r\n",
  "sourcePath": "C:\\Users\\ilias\\OneDrive\\Bureau\\contract_test\\contracts\\MyContract.sol",
  "compiler": {
    "name": "solc",
    "version": "0.8.21+commit.d9974bed.Emscripten.clang"
  },
  "schemaVersion": "3.4.16",
  "updatedAt": "2025-07-18T18:57:16.299Z",
  "devdoc": {
    "kind": "dev",
    "methods": {},
    "version": 1
  },
  "userdoc": {
    "kind": "user",
    "methods": {},
    "version": 1
  }
}