{
  "contractName": "VerificateurParite",
  "abi": [
    {
      "inputs": [],
      "name": "lastChecked",
      "outputs": [
        {
          "internalType": "uint256",
          "name": "",
          "type": "uint256"
        }
      ],
      "stateMutability": "view",
      "type": "function",
      "constant": true
    },
    {
      "inputs": [
        {
          "internalType": "uint256",
          "name": "nombre",
          "type": "uint256"
        }
      ],
      "name": "estPair",
      "outputs": [
        {
          "internalType": "bool",
          "name": "",
          "type": "bool"
        }
      ],
      "stateMutability": "pure",
      "type": "function",
      "constant": true
    },
    {
      "inputs": [
        {
          "internalType": "uint256",
          "name": "nombre",
          "type": "uint256"
        }
      ],
      "name": "checkAndStore",
      "outputs": [],
      "stateMutability": "nonpayable",
      "type": "function"
    }
  ],
  "bytecode": "0x608060405234801561001057600080fd5b50610236806100206000396000f3fe608060405234801561001057600080fd5b50600436106100415760003560e01c80631cee907f14610046578063d8efc50414610076578063e5ada13e14610092575b600080fd5b610060600480360381019061005b9190610113565b6100b0565b60405161006d919061015b565b60405180910390f35b610090600480360381019061008b9190610113565b6100c8565b005b61009a6100d2565b6040516100a79190610185565b60405180910390f35b6000806002836100c091906101cf565b149050919050565b8060008190555050565b60005481565b600080fd5b6000819050919050565b6100f0816100dd565b81146100fb57600080fd5b50565b60008135905061010d816100e7565b92915050565b600060208284031215610129576101286100d8565b5b6000610137848285016100fe565b91505092915050565b60008115159050919050565b61015581610140565b82525050565b6000602082019050610170600083018461014c565b92915050565b61017f816100dd565b82525050565b600060208201905061019a6000830184610176565b92915050565b7f4e487b7100000000000000000000000000000000000000000000000000000000600052601260045260246000fd5b60006101da826100dd565b91506101e5836100dd565b9250826101f5576101f46101a0565b5b82820690509291505056fea264697066735822122071393a85c99e35a61943fca505050214195791bdd7e622eb48bd51416478688264736f6c63430008130033",
  "immutableReferences": {},
  "source": "// SPDX-License-Identifier: MIT\r\n// VerificateurParite\r\n\r\npragma solidity ^0.8.0;\r\n\r\ncontract VerificateurParite {\r\n    uint public lastChecked;\r\n\r\n    function estPair(uint nombre) public pure returns (bool) {\r\n        return nombre % 2 == 0;\r\n    }\r\n\r\n    function checkAndStore(uint nombre) public {\r\n        lastChecked = nombre;\r\n    }\r\n}",
  "sourcePath": "C:\\Users\\ilias\\OneDrive\\Bureau\\contract_test\\contracts\\VerificateurParite.sol",
  "compiler": {
    "name": "solc",
    "version": "0.8.19+commit.7dd6d404.Emscripten.clang"
  },
  "schemaVersion": "3.4.16",
  "updatedAt": "2025-07-29T00:01:34.195Z",
  "networkType": "ethereum",
  "devdoc": {
    "kind": "dev",
    "methods": {},
    "version": 1
  },
  "userdoc": {
    "kind": "user",
    "methods": {},
    "version": 1
  }
}