{
  "contractName": "VerificateurPositif",
  "abi": [
    {
      "inputs": [
        {
          "internalType": "int256",
          "name": "nombre",
          "type": "int256"
        }
      ],
      "name": "estPositif",
      "outputs": [
        {
          "internalType": "bool",
          "name": "",
          "type": "bool"
        }
      ],
      "stateMutability": "pure",
      "type": "function",
      "constant": true
    }
  ],
  "bytecode": "0x608060405234801561001057600080fd5b5061012a806100206000396000f3fe6080604052348015600f57600080fd5b506004361060285760003560e01c8063fa046abd14602d575b600080fd5b60436004803603810190603f9190609a565b6057565b604051604e919060db565b60405180910390f35b6000808212159050919050565b600080fd5b6000819050919050565b607a816069565b8114608457600080fd5b50565b6000813590506094816073565b92915050565b60006020828403121560ad5760ac6064565b5b600060b9848285016087565b91505092915050565b60008115159050919050565b60d58160c2565b82525050565b600060208201905060ee600083018460ce565b9291505056fea26469706673582212206d9cd75426cd3861002f7b8066dc7cfd85071daedad74ecc4b8e3c35c2b4848a64736f6c63430008130033",
  "immutableReferences": {},
  "source": "// SPDX-License-Identifier: MIT\r\npragma solidity ^0.8.0;\r\n\r\ncontract VerificateurPositif {\r\n    function estPositif(int nombre) public pure returns (bool) {\r\n        return nombre >= 0;\r\n    }\r\n}\r\n",
  "sourcePath": "C:\\Users\\ilias\\OneDrive\\Bureau\\contract_test\\contracts\\VerificateurPositif.sol",
  "compiler": {
    "name": "solc",
    "version": "0.8.19+commit.7dd6d404.Emscripten.clang"
  },
  "schemaVersion": "3.4.16",
  "updatedAt": "2025-07-27T19:09:58.290Z",
  "networkType": "ethereum",
  "devdoc": {
    "kind": "dev",
    "methods": {},
    "version": 1
  },
  "userdoc": {
    "kind": "user",
    "methods": {},
    "version": 1
  }
}